:020000040800F2
:10000000900D0020E10B00083D0C00083D0C00089D
:100010003D0C00083D0C00083D0C000800000000ED
:100020000000000000000000000000003D0C00087F
:100030003D0C0008000000003D0C0008FD230008F6
:100040003D0C00083D0C00083D0C00083D0C00086C
:100050003D0C00083D0C00083D0C00083D0C00085C
:100060003D0C00083D0C00083D0C00083D0C00084C
:100070003D0C00083D0C00083D0C00083D0C00083C
:100080003D0C00083D0C00083D0C00083D0C00082C
:100090003D0C00083D0C00083D0C00083D0C00081C
:1000A0003D0C00083D0C00083D0C00083D0C00080C
:1000B0003D0C00083D0C0008710C00083D0C0008C8
:1000C0003D0C00083D0C00083D0C00083D0C0008EC
:1000D0003D0C00083D0C00083D0C0008C90C000850
:1000E0003D0C00083D0C00083D0C00083D0C0008CC
:1000F0003D0C00083D0C00083D0C00083D0C0008BC
:100100003D0C00083D0C00083D0C00083D0C0008AB
:100110003D0C00083D0C00083D0C00083D0C00089B
:100120003D0C00083D0C00083D0C00083D0C00088B
:100130003D0C00083D0C00083D0C00083D0C00087B
:100140003D0C00083D0C00083D0C00083D0C00086B
:100150003D0C00083D0C00083D0C00083D0C00085B
:100160003D0C00083D0C00083D0C00083D0C00084B
:100170003D0C00083D0C00083D0C00083D0C00083B
:100180003D0C00083D0C000880B485B000AF7860DD
:10019000114B1B68BB60EFF30583FB60FB68002B12
:1001A00011D100BF0C4B1A68BB68D21A7B689A4207
:1001B000F8D30BE0094B1B6803F48033002B02D00B
:1001C0007B68013B7B607B68002BF3D100BF143759
:1001D000BD4680BC704700BFD804002010E000E09E
:1001E00080B500AF0E4803F05DF84FF47A70FFF76A
:1001F000CBFF0C4803F056F84FF47A70FFF7C4FFBA
:10020000094803F04FF84FF47A70FFF7BDFF074835
:1002100003F048F84FF47A70FFF7B6FF00BF80BDD7
:10022000785C0008805C00088C5C0008A85C000812
:10023000F0B593B004AF134B1D68134B1E68134BFE
:100240001B68134A126813490968134800683C4642
:10025000039002910192009333462A460F492046AB
:1002600001F0D6F83B46184603F01CF84FF47A70BC
:10027000FFF78AFF1A2002F0FBFF00BF3C37BD46A4
:10028000F0BD00BF88050020200500208C0500205F
:10029000B0040020C4040020D0040020C45C000886
:1002A00080B485B000AF78600F4B1A687B6802FBA2
:1002B00003F3FB600D4B1B680D4A934204D00B4BBC
:1002C0001B680C4A934204D1074B1B68FA68D31A87
:1002D000FB6000BFFB685A1EFA60002BFAD100BF1A
:1002E0001437BD4680BC70478405002048040020B8
:1002F0000095BA0A00E1F50580B582B000AF03466B
:100300000A46FB711346BB7102F0F0F800F0C0F929
:100310004AF6C870FFF7C4FF2A4ABB79D370294A4E
:10032000FB791371274B00225A71264B00229A71D8
:10033000244B00225A70BB79012B06D9214B5B78E4
:1003400043F00803DAB21F4B5A70032000F01AF989
:1003500041F29410FFF7A4FF032000F013F941F2DB
:100360009410FFF79DFF032000F00CF941F2941068
:10037000FFF796FF022000F005F96420FFF790FFD9
:10038000104B5B7843F02003DBB2184600F0C2F854
:100390000C4B04221A7000F07FF800F015F8094B9E
:1003A00002229A70074B9B7843F00403DBB2184695
:1003B00000F0B0F841F29410FFF772FF00BF083769
:1003C000BD4680BD6004002080B500AF012000F074
:1003D000A1F840F6B830FFF763FF00BF80BD00BF53
:1003E00080B582B000AF03463A60FB710B46BB712B
:1003F000BA79FB791146184600F016F942E0254B10
:100400005A79244B1B799A4210D3224B00225A71FD
:10041000204B9B790133DAB21E4B9A711D4B5A79EE
:100420001C4B9B791946104600F0FEF83B681B7880
:100430000A2B0ED1174B9B790133DAB2154B9A7107
:10044000144B5A79134B9B791946104600F0ECF87F
:1004500015E03B681B780D2B06D10E4B9B79194696
:10046000002000F0E1F80AE03B681B78184600F035
:100470006DF8084B5B790133DAB2064B5A713B6871
:1004800001333B603B681B78002BB8D100BF0837B5
:10049000BD4680BD6004002080B500AF084B1B78CE
:1004A00043F00403DAB2064B1A70054B1B7843F095
:1004B0000803DBB2184600F02DF800BF80BD00BF76
:1004C0006004002080B584B000AF03463960FB7142
:1004D000FB7903F00703FB71FB79DB005BB243F0B0
:1004E00040035BB2DBB2184600F014F80023FB7344
:1004F00009E0FB7B3A6813441B78184600F026F8A5
:10050000FB7B0133FB73FB7B072BF2D900BF10375A
:10051000BD4680BD80B582B000AF0346FB710A4B7B
:1005200004225A83FB791B09DBB2184600F02AF833
:10053000FB7903F00F03DBB2184600F023F800BF8D
:100540000837BD4680BD00BF0004024080B582B0C0
:1005500000AF0346FB710A4B04221A83FB791B0987
:10056000DBB2184600F00EF8FB7903F00F03DBB2A4
:10057000184600F007F800BF0837BD4680BD00BF31
:100580000004024080B582B000AF0346FB71FB79E6
:1005900003F00803002B04D0214B4FF400521A83C0
:1005A00003E01F4B4FF400525A83FB7903F004031E
:1005B000002B04D01A4B4FF480521A8303E0184BDF
:1005C0004FF480525A83FB7903F00203002B04D0CE
:1005D000144B4FF400521A8303E0124B4FF40052B5
:1005E0005A83FB7903F00103002B04D00D4B4FF429
:1005F00080521A8303E00B4B4FF480525A83084B0E
:1006000080221A831420FFF74BFE054B80225A8369
:100610001420FFF745FE00BF0837BD4680BD00BF70
:10062000000402400008024080B584B000AF0346D9
:100630000A46FB711346BB71134A07F10C0310689D
:100640001860124BDB78BA799A4201D30023BB7150
:100650000E4AFB7953710D4ABB799371BB7907F14F
:100660001002134413F8042CFB791344DBB25BB281
:1006700063F07F035BB2DBB21846FFF74BFF00BFAE
:100680001037BD4680BD00BFFC5C00086004002040
:1006900080B582B002AF00230193002300930023B2
:1006A00001220421284802F0E9FF002301930023DE
:1006B0000093002301228021234802F0DFFF002362
:1006C000019300230093002301224FF480511F481F
:1006D00002F0D4FF002301930023009300230122A2
:1006E0004FF40051194802F0C9FF00230193002381
:1006F0000093002301224FF48051134802F0BEFF03
:100700000023019300230093002301224FF40051A2
:100710000D4802F0B3FF0C4B04225A830A4B80228F
:100720005A830A4B4FF480525A83084B4FF40052BD
:100730005A83054B4FF480525A83034B4FF40052B7
:100740005A8300BFBD4680BD00040240000802403D
:1007500080B58AB000AF7860396000237B620023E7
:100760003B620023FB610023BB617B681B8A9BB259
:100770007B627B6A23F440537B623B68DB881A46CA
:100780007B6A13437B627B6A9AB27B681A827B68BE
:100790009B899BB27B627B6A23F4B05323F00C03EA
:1007A0007B623B689A883B681B8913439AB23B681B
:1007B0005B8913439BB21A467B6A13437B627B6A55
:1007C0009AB27B689A817B689B8A9BB27B627B6AC8
:1007D00023F440737B623B689B891A467B6A134310
:1007E0007B627B6A9AB27B689A8207F1080318469B
:1007F00000F08AFA7B68304A934203D07B682F4A24
:10080000934202D17B693B6201E03B693B627B68BA
:100810009B899BB21BB2002B0CDA3A6A13469B00F1
:1008200013449A001A443B681B685B00B2FBF3F365
:10083000FB610BE03A6A13469B0013449A001A448A
:100840003B681B689B00B2FBF3F3FB61FB691C4A2E
:10085000A2FB03235B091B017B627B6A1B096422E9
:1008600002FB03F3FA69D31ABB617B689B899BB2D5
:100870001BB2002B0CDABB69DB003233104AA2FB3F
:1008800003235B0903F007037A6A13437B620BE0DF
:10089000BB691B0132330A4AA2FB03235B0903F045
:1008A0000F037A6A13437B627B6A9AB27B681A8170
:1008B00000BF2837BD4680BD001001400014014034
:1008C0001F85EB5180B483B000AF78600B46FB709E
:1008D000FB78002B08D07B689B899BB243F40053C4
:1008E0009AB27B689A8107E07B689B899BB223F46C
:1008F00000539AB27B689A8100BF0C37BD4680BC1A
:10090000704700BF80B483B000AF78600B467B8037
:100910007B88C3F308039AB27B689A8000BF0C37C8
:10092000BD4680BC704700BF80B487B000AF786020
:100930000B467B8013467B7000233B610023FB60EA
:100940000023BB6000237B617B687B617B88DBB21B
:100950005B09DBB23B617B8803F01F03FB60012274
:10096000FB6802FA03F3BB603B69012B03D17B698F
:100970000C337B6109E03B69022B03D17B691033A7
:100980007B6102E07B6914337B617B78002B06D0AE
:100990007B697A691168BA680A431A6006E07B6964
:1009A0007A691168BA68D2430A401A6000BF1C37DE
:1009B000BD4680BC704700BF80B485B000AF786092
:1009C0000B467B800023FB737B681B889AB27B8875
:1009D00013409BB2002B02D00123FB7301E00023E4
:1009E000FB73FB7B18461437BD4680BC704700BFC5
:1009F00080B487B000AF78600B467B800023FB603B
:100A000000237B610023BB600023FB747B88DBB287
:100A10005B09DBB2BB607B8803F01F037B610122B3
:100A20007B6902FA03F37B61BB68012B07D17B680A
:100A30009B899BB21A467B6913407B6111E0BB68BE
:100A4000022B07D17B681B8A9BB21A467B69134035
:100A50007B6106E07B689B8A9BB21A467B691340E8
:100A60007B617B881B0A9BB2FB600122FB6802FA58
:100A700003F3FB607B681B889BB21A46FB6813403C
:100A8000FB607B69002B05D0FB68002B02D00123A3
:100A9000FB7401E00023FB74FB7C18461C37BD4649
:100AA00080BC704780B485B000AF78600F4B1A6887
:100AB0007B6802FB03F3FB600D4B1B680D4A9342FE
:100AC00004D00B4B1B680C4A934204D1074B1B68A4
:100AD000FA68D31AFB6000BFFB685A1EFA60002B4D
:100AE000FAD100BF1437BD4680BC70478405002092
:100AF000480400200095BA0A00E1F50580B485B0ED
:100B000000AF7860114B1B68BB60EFF30583FB609F
:100B1000FB68002B11D100BF0C4B1A68BB68D21ABE
:100B20007B689A42F8D30BE0094B1B6803F48033CF
:100B3000002B02D07B68013B7B607B68002BF3D1EC
:100B400000BF1437BD4680BC704700BFD8040020EA
:100B500010E000E080B500AF164800F0AFFD154B87
:100B60009B891846FFF79EFF124800F0C5FD032140
:100B7000104800F039FE0F4B9B891846FFF792FF93
:100B80000C4800F081FE4FF47A70FFF7B7FF094B75
:100B90009B68184605F024F80246074B1A60054B7F
:100BA0005B68064AA2FB03235B091A46044B1A60E2
:100BB00000BF80BD240500201C0500201F85EB51CF
:100BC0002005002080B500AF044800F037FC034644
:100BD000002B00D0FEE700BF80BD00BF2405002031
:100BE00080B582B000AF104B7B60104B3B6007E0DC
:100BF0003B681A1D3A607A68111D796012681A60A4
:100C00003B680B4A9342F3D30A480B494FF000026A
:100C10008842B8BF40F8042BFADB00F013F800BF9D
:100C20000837BD4680BD00BF485D000800000020B9
:100C300060040020600400209005002080B400AF14
:100C4000FEE700BF80B500AF02F0CAF901F0F0FF87
:100C500002F0C2FF02F0AAFA02F0FCFA01F046FC30
:100C6000FFF7B0FF02F032FBFFF7BAFAFEE700BF72
:100C700080B500AF0121124802F0D4FE0346002BDC
:100C80001CD0104B1B6801330E4A136002F036FB78
:100C90000C4B1B68022B04D101F0E4FFFFF75AFF55
:100CA00008E0084B1B68062B04D1FFF7C1FA054B7F
:100CB00000221A600121024802F0DEFE00BF80BD62
:100CC000000800406804002080B582B000AF40F208
:100CD00025510C48FFF78CFE0346002B0DD0094B25
:100CE0009B889BB2FB71FB79732B02D101F088F8D2
:100CF00003E0FB79184600F0CBFF00BF0837BD4684
:100D000080BD00BF0048004080B489B000AF78606B
:100D10000023BB6100237B610023FB6102233B6155
:100D20000023FB600223BB60484B9B6803F00C036D
:100D3000BB61BB69042B07D0082B09D0002B3FD126
:100D40007B68434A1A603FE07B68424A1A603BE096
:100D50003E4B5B6803F480039B0DFB603B4B5B6881
:100D600003F03F03BB60FB68002B0DD0394ABB6822
:100D7000B2FBF3F2354B596847F6C0730B409B0941
:100D800003FB02F3FB610CE0314ABB68B2FBF3F2F8
:100D90002E4B596847F6C0730B409B0903FB02F3C7
:100DA000FB612A4B5B6803F440331B0C01335B008F
:100DB0003B61FA693B69B2FBF3F27B681A6003E0BE
:100DC0007B68234A1A6000BF204B9B6803F0F00346
:100DD000BB61BB691B09BB611F4ABB6913441B781C
:100DE000DBB27B617B681A687B69DA407B685A609A
:100DF000164B9B6803F4E053BB61BB699B0ABB6164
:100E0000154ABB6913441B78DBB27B617B685A6867
:100E10007B69DA407B689A600C4B9B6803F4604303
:100E2000BB61BB695B0BBB610B4ABB6913441B789D
:100E3000DBB27B617B685A687B69DA407B68DA6089
:100E400000BF2437BD4680BC704700BF0038024059
:100E50000024F40000127A000000002080B483B067
:100E600000AF78600B46FB70FB78002B06D0094979
:100E7000084B1A6B7B6813430B6306E00549054B6F
:100E80001A6B7B68DB4313400B6300BF0C37BD4616
:100E900080BC70470038024080B483B000AF7860F7
:100EA0000B46FB70FB78002B06D00949084B1A6CE7
:100EB0007B6813430B6406E00549054B1A6C7B689D
:100EC000DB4313400B6400BF0C37BD4680BC70474A
:100ED0000038024080B483B000AF78600B46FB70EE
:100EE0007B68FA781A70012318460C37BD4680BC1F
:100EF000704700BF80B485B000AF786039600023D0
:100F0000FB600AE07B685A1C7A603A68511C3960C1
:100F100012781A70FB680133FB603B681B78002B6A
:100F2000F0D1FB6818461437BD4680BC704700BF3F
:100F300080B586B000AFF8607A603B600B46FB720C
:100F400000237B617B68013B7B603B68092B1DD9DB
:100F50003B681D4AA2FB0323DB08F97A7A68F8682C
:100F6000FFF7E6FF78617B69FA681344FB6010E0E5
:100F7000FB7A1946F868FFF7ADFFFB680133FB60A9
:100F80007B6901337B617B68013B7B607B68002B65
:100F9000EEDC39680C4BA3FB0123DA0813469B00F7
:100FA00013445B00CA1AD3B23033DBB21946F86877
:100FB000FFF790FF02467B6913447B617B6918460B
:100FC0001837BD4680BD00BFCDCCCCCC80B586B037
:100FD00000AFF8607A603B600B46FB7200237B61D8
:100FE0003B68002B03DA3B685B423B6101E03B68F6
:100FF0003B617B68013B7B603B69092B1FD93B68E8
:10100000002B0CDA3B692E4AA2FB0323DB085B4270
:10101000F97A7A68F868FFF7D9FF78610AE03B69E6
:10102000274AA2FB0323DB08F97A7A68F868FFF7FE
:10103000CDFF78617B69FA681344FB6025E03B686B
:10104000002B11DA7B68013B7B600DE0FB7A1946CF
:10105000F868FFF73FFFFB680133FB607B690133F2
:101060007B617B68013B7B607B68002BEEDC3B682F
:10107000002B0ADA2D21F868FFF72CFF02467B6966
:1010800013447B61FB680133FB6039690C4BA3FBA4
:101090000123DA0813469B0013445B00CA1AD3B23B
:1010A0003033DBB21946F868FFF714FF02467B695C
:1010B00013447B617B6918461837BD4680BD00BF6D
:1010C000CDCCCCCC80B588B002AFF8607A601A463F
:1010D0000B46FB721346BB7200237B617B68013BAE
:1010E0007B603B6A1B09002B20D03B6A1B09BA7A44
:1010F000F97A009313467A68F868FFF7E3FF02462F
:101100007B6913447B617B69FA681344FB6010E0E0
:10111000FB7A1946F868FFF7DDFEFB680133FB60D8
:101120007B6901337B617B68013B7B607B68002BC3
:10113000EEDC3B6A03F00F03092B0BD83B6ADBB2F2
:1011400003F00F03DBB23033DBB21946F868FFF768
:10115000C1FE19E0BB7A002B0BD03B6ADBB203F077
:101160000F03DBB23733DBB21946F868FFF7B2FE84
:101170000AE03B6ADBB203F00F03DBB25733DBB2AA
:101180001946F868FFF7A6FE7B6901337B617B692E
:1011900018461837BD4680BD80B58AB002AFF860EA
:1011A000B9607A603B600023BB6100237B61FB6810
:1011B000002B00F0FC80FB6800221A70F7E07B68CF
:1011C0001B78252B0BD0FB685A1CFA607A68511CDF
:1011D000796012781A707B6901337B61E7E07B6884
:1011E00001331B78252B0BD1FB685A1CFA60252292
:1011F0001A707B6802337B607B6901337B61D6E0C8
:101200002023FB770023BB777B6801337B607B68FF
:101210001B78302B14D13023FB777B6801337B6044
:101220000EE0BB7F1A46920013445B00DAB27B6883
:101230001B781344DBB2303BBB777B6801337B60A8
:101240007B681B782F2B03D97B681B78392BE8D957
:10125000BA7F7B6913441A46BB689A4205D9BB68BA
:10126000DAB27B69DBB2D31ABB777B681B78583B59
:10127000202B00F28E8001A252F823F04D130008BB
:1012800093130008931300089313000893130008A6
:101290009313000893130008931300089313000896
:1012A00093130008931300087D130008011300082E
:1012B0009313000893130008931300089313000876
:1012C00001130008931300089313000893130008F8
:1012D0009313000893130008931300089313000856
:1012E0009313000893130008691300089313000870
:1012F0001913000893130008931300083113000812
:10130000B87F3B681A1D3A601B68F97F0246F8688F
:10131000FFF75CFEB8613FE0B87F3B681A1D3A609A
:101320001B68F97F0246F868FFF702FEB86133E0F8
:10133000B87F3B681A1D3A601B68F97F0093002351
:101340000246F868FFF7BEFEB86125E0B87F3B684B
:101350001A1D3A601B68F97F009301230246F86862
:10136000FFF7B0FEB86117E03B681A1D3A601B68D2
:101370001946F868FFF7BEFDB8610DE03B681A1D1D
:101380003A601B68DBB21946F868FFF7A3FDB86145
:1013900002E04FF0FF3325E07B6801337B60BB69DF
:1013A000FA681344FB607A69BB6913447B617B680C
:1013B0001B78002B04D07A69BB689A42FFF4FFAE19
:1013C0007A69BB689A4203D2FB6800221A7008E06F
:1013D000FB68013BFB60FB6800221A707B69013BE4
:1013E0007B617B6918462037BD4680BD80B584B0DF
:1013F00000AFF860B9607A607B68BA686421F86809
:10140000FFF7CAFE034618461037BD4680BD00BF31
:101410000EB480B585B000AF786007F12003BB60E3
:10142000BA68F9697868FFF7E1FFF860FB68184669
:101430001437BD46BDE8804003B0704780B58AB020
:1014400002AF78600023FB778E4A00218E4801F0BE
:1014500075F8EE218C4801F069F90346002B01D1A3
:1014600001230AE107F10802162300931346AA227A
:10147000EE21854801F0FEF8FB7F07F120021344BE
:1014800013F8183C1B021AB2FB7F013307F120014D
:101490000B4413F8183C1BB213431AB27B4B1A804F
:1014A000FB7F0233FB77FB7F07F12002134413F825
:1014B000183C1B021AB2FB7F013307F120010B44D9
:1014C00013F8183C1BB213431AB2714B1A80FB7FFE
:1014D0000233FB77FB7F07F12002134413F8183C1B
:1014E0001B021AB2FB7F013307F120010B4413F8F2
:1014F000183C1BB213431AB2664B1A80FB7F0233AF
:10150000FB77FB7F07F12002134413F8183C1B0202
:101510001AB2FB7F013307F120010B4413F8183C8A
:101520001BB213431BB29AB25B4B1A80FB7F023390
:10153000FB77FB7F07F12002134413F8183C1B02D2
:101540001AB2FB7F013307F120010B4413F8183C5A
:101550001BB213431BB29AB2504B1A80FB7F02336B
:10156000FB77FB7F07F12002134413F8183C1B02A2
:101570001AB2FB7F013307F120010B4413F8183C2A
:101580001BB213431BB29AB2454B1A80FB7F023346
:10159000FB77FB7F07F12002134413F8183C1B0272
:1015A0001AB2FB7F013307F120010B4413F8183CFA
:1015B0001BB213431AB23B4B1A80FB7F0233FB77FB
:1015C000FB7F07F12002134413F8183C1B021AB2E8
:1015D000FB7F013307F120010B4413F8183C1BB2C9
:1015E00013431AB2304B1A80FB7F0233FB77FB7F29
:1015F00007F12002134413F8183C1B021AB2FB7FB8
:10160000013307F120010B4413F8183C1BB21343BC
:101610001AB2264B1A80FB7F0233FB77FB7F07F160
:101620002002134413F8183C1B021AB2FB7F01334B
:1016300007F120010B4413F8183C1BB213431AB2F4
:101640001B4B1A80FB7F0233FB77FB7F07F12002E5
:10165000134413F8183C1B021AB2FB7F013307F145
:1016600020010B4413F8183C1BB213431AB2114B60
:101670001A80114B01221A70002318462037BD46EC
:1016800080BD00BFA0860100005C00403A0500203C
:101690006005002062050020580500204C05002050
:1016A0003C05002074050020640500205A05002038
:1016B0007C050020380500206C04002080B582B035
:1016C00000AF78600A4B1B78002B01D102230AE09F
:1016D0002E23F422EE21074801F004F87B6841F242
:1016E00094129A81002318460837BD4680BD00BF7A
:1016F0006C040020005C004080B586B002AF7860CA
:101700002E4B1B78002B01D1022353E007F10C0272
:10171000022300931346F622EE21294800F0AAFF87
:101720003B7B1B021AB27B7B1BB213431BB29AB2E8
:10173000244B1A80234B1B881A46234B1B88D31A31
:10174000224A128802FB03F3184604F0A5F8034668
:101750004FF06051184604F0F3F80346184604F0C1
:101760003FFA02461A4B1A601A4BB3F90030DA02FC
:10177000194BB3F900301946154B1B680B4492FB0B
:10178000F3F3164A1360124B1A68144B1B68134488
:10179000134A1360124B1B680833184604F07CF898
:1017A00003461049184604F07FF903461A467B6841
:1017B0009A60002318461037BD4680BD6C04002097
:1017C000005C0040440500203C0500204C05002042
:1017D0005C0500207C05002038050020480500201D
:1017E000540500200000204380B584B000AF78602D
:1017F0000B46FB70224B1B78002B01D102233AE0F1
:10180000FB78032B26D801A252F823F01D180008FC
:101810002B18000839180008471800083423FB73F8
:101820007B6841F294129A811BE07423FB737B68FE
:1018300041F64C529A8114E0B423FB737B6843F267
:10184000C8229A810DE0F423FB737B6846F2A8124C
:101850009A8106E03423FB737B6841F294129A81EB
:1018600000BFFB7BF422EE21064800F03BFF7B68C3
:10187000FA789A73002318461037BD4680BD00BF22
:101880006C040020005C004090B587B002AF786027
:101890008B4B1B78002B01D10223E0E107F10C02F6
:1018A000032300931346F622EE21864800F0E2FE61
:1018B0003B7B1A047B7B1B021343BA7B1A437B6876
:1018C0009B7BC3F1080342FA03F31A467E4B1A606E
:1018D0007E4B1B68A3F57A637D4A13607D4BB3F999
:1018E0000030184603F0D8FF0446794B1B68784A4D
:1018F000126802FB03F3184603F0CEFF03464FF0D5
:101900006651184604F01CF803461946204604F0B8
:1019100017F803464FF06851184604F011F80346D3
:10192000184604F05DF902466B4B1A606B4BB3F935
:1019300000301A46664B1B6803FB02F3184603F09F
:10194000ABFF03464FF06851184603F0F9FF03461A
:10195000184604F045F90246614B1A605E4B1A685E
:101960005F4B1B6813445F4A13605F4BB3F9003051
:101970009A005C4B1B6813447A68927B9340023355
:10198000184603F041FB4FF00002584B03F0A2FB56
:1019900003460C461846214603F04CFE0246544BC3
:1019A0001A60544BB3F900301A46494B1B6803FBCD
:1019B00002F3184603F070FF03464FF064511846D7
:1019C00003F0BEFF0346184604F00AF90246424BF4
:1019D0001A60494BB3F90030184603F05DFF044626
:1019E0003B4B1B683A4A126802FB03F3184603F0AC
:1019F00053FF03464FF06651184603F0A1FF03461C
:101A00001946204603F09CFF03464FF05E511846EE
:101A100003F096FF0346184604F0E2F80246304B06
:101A20001A602D4B1A682E4B1B681344023318465C
:101A300003F0EAFA4FF000022C4B03F04BFB034695
:101A40000C461846214603F0F5FD0246254B1A6068
:101A50002A4B1B881A46234B1B6803F5004303FBE4
:101A600002F3184603F014FF03464FF06051184686
:101A700003F066FF0346184604F0D8F80246204BF0
:101A80001A60114B1B681A4A12689B1A7A68927B7B
:101A900011464CF250320A4102FB03F3194A13601B
:101AA000184B1B68002B31DB164B1B685A00144B7C
:101AB0001B68B2FBF3F31A46134B1A6030E000BF09
:101AC0006C040020005C00407805002054050020D4
:101AD00040050020640500205C0500206005002012
:101AE00048050020680500203A0500200000D03F8E
:101AF00080050020620500207405002058050020A4
:101B00006C0500207005002034050020584B1A6831
:101B1000584B1B68B2FBF3F35B001A46564B1A6036
:101B2000554B1B68184603F0B7FE03464FF06E5145
:101B3000184603F005FF03461C464F4B1B6818462A
:101B400003F0AAFE03464FF06E51184603F0F8FE6C
:101B500003461946204603F0F3FE0346184604F0F8
:101B60003FF80246454B1A60444B1B6840F6DE3294
:101B700002FB03F3184603F08FFE03464FF05E515D
:101B8000184603F0DDFE0346184604F029F8024625
:101B90003A4B1A60384B1B68394A02FB03F318466C
:101BA00003F07AFE03464FF05E51184603F0C8FE7C
:101BB0000346184604F014F80246324B1A602E4BC6
:101BC0001B68184603F068FE04462C4B1A682D4B20
:101BD0001B68134403F6CF63184603F05DFE03460B
:101BE0004FF07651184603F0ABFE034619462046E7
:101BF00003F09EFD0346184603F0F2FF02461E4B1B
:101C00001A601D4B1B681A467B685A601A4B1B688A
:101C1000184603F041FE03461B49184603F090FEA8
:101C20000346184603F002FA0FA3D3E9002301F09C
:101C3000E3FF03460C461846214603F023FD034606
:101C400019464FF07E5003F071FD03460F491846C8
:101C500003F076FE03461A467B681A600023184696
:101C60001437BD4690BD00BFB9066CBD955BC83F3B
:101C7000700500206C050020340500205C05002064
:101C800043E3FFFF4805002008942537002A2D472D
:101C900080B582B000AF0346FB714D4B1B6801332A
:101CA0004B4A13604A4B1B68013B072B00F28780AD
:101CB00001A252F823F000BFD91C0008E91C00085B
:101CC000111D0008211D0008311D0008411D0008DC
:101CD000811D0008911D0008FB79184600F008FBE3
:101CE00002463C4B1A606EE0FB79184600F000FBA0
:101CF0000246394B1A60374B1A6813469B0013444F
:101D00005B001A46344B1B681344344A13605AE094
:101D1000FB79184600F0ECFA0246314B1A6052E0AB
:101D2000FB79184600F0E4FA02462E4B1A604AE0AE
:101D3000FB79184600F0DCFA02462B4B1A6042E0B1
:101D4000FB79184600F0D4FA0246284B1A60244B5F
:101D50001B684FF47A7202FB03F2224B1B6864216A
:101D600001FB03F3D118204B1A6813469B00134460
:101D70005B00CA181D4B1B6813441D4A136022E008
:101D8000FB79184600F0B4FA02461A4B1A601AE0C2
:101D9000FB79184600F0ACFA0246174B1A60154B57
:101DA0001A6813469B0013445B001A46124B1B68CB
:101DB0001344124A1360064B00221A6003E0044BDE
:101DC00000221A6000BF00BF0837BD4680BD00BFBB
:101DD000A4040020A8040020AC040020B0040020CB
:101DE000B4040020B8040020BC040020C00400207B
:101DF000C4040020C8040020CC040020D00400202B
:101E000080B500AF00F006F800F0F8F800F090F8A8
:101E100000BF80BDB0B500AF3F4B1B68092B55DD3F
:101E20003D4B1B68184603F0EFF84FF000023B4BA8
:101E300003F07AFA03460C46394AC2E90034384BBB
:101E4000D3E900341846214603F0F4FB0246354B33
:101E50001A60334BD3E90045324B1B68184603F038
:101E6000D3F802460B462046294602F07FFF034680
:101E70000C46184621464FF00002284B03F02AF981
:101E800003460C461846214603F0D4FB0246264B77
:101E90001A60244B1B68DBB23033DBB2184601F00A
:101EA00079FE214B1B68DBB23033DBB2184601F000
:101EB00071FE1C4B1A6813469B0013445B001A46C4
:101EC000194B1B681344194A136022E0154B00227A
:101ED0001A60114B1B68144A1360124B1B68DBB26B
:101EE0003033DBB2184601F055FE0F4B1B68DBB2F6
:101EF0003033DBB2184601F04DFE0A4B1A68134628
:101F00009B0013445B001A46074B1B681344074AA7
:101F1000136000BFB0BD00BF880500200000244052
:101F200070040020880400208C0400209804002005
:101F3000B0B500AF2B4B1B68184603F065F84FF0A7
:101F40000002294B03F0F0F903460C46274AC2E988
:101F50000034264BD3E900341846214603F06AFBCF
:101F60000246234B1A60214BD3E90045204B1B68E6
:101F7000184603F049F802460B462046294602F06F
:101F8000F5FE03460C46184621464FF00002164B5C
:101F900003F0A0F803460C461846214603F04AFB1E
:101FA0000246144B1A60124B1B68DBB23033DBB2B3
:101FB000184601F0EFFD0F4B1B68DBB23033DBB28C
:101FC000184601F0E7FD0A4B1A6813469B001344BC
:101FD0005B001A46074B1B681344074A136000BF97
:101FE000B0BD00BF8C05002000002440700400201C
:101FF000880400208C040020A0040020B0B500AFAD
:10200000AF4B1B68B3F57A7FC0F2BE80AC4B1B6848
:10201000184602F0F9FF4FF00002AA4B03F084F9D2
:1020200003460C46A84AC2E90034A74BD3E9003462
:102030001846214603F0FEFA0246A44B1A60A24B52
:10204000D3E90045A14B1B68184602F0DDFF0246AC
:102050000B462046294602F089FE03460C461846E8
:1020600021464FF000029A4B03F034F803460C4629
:10207000984AC2E90034974BD3E900341846214608
:1020800003F0D8FA0246944B1A60924BD3E900450C
:10209000914B1B68184602F0B7FF02460B462046DC
:1020A000294602F063FE03460C46184621464FF0CF
:1020B0000002874B03F00EF803460C46874AC2E93C
:1020C0000034864BD3E900341846214603F0B2FAB7
:1020D0000246834B1A60814BD3E90045804B1B6855
:1020E000184602F091FF02460B462046294602F0B0
:1020F0003DFE03460C46184621464FF00002744B45
:1021000002F0E8FF03460C461846214603F092FA17
:102110000246744B1A606D4B1B68DBB23033DBB286
:10212000184601F037FD6C4B1B68DBB23033DBB275
:10213000184601F02FFD6A4B1B68DBB23033DBB26F
:10214000184601F027FD674B1B68DBB23033DBB26A
:10215000184601F01FFD5D4B1B684FF47A7202FBBD
:1021600003F25D4B1B68642101FB03F3D1185C4B48
:102170001A6813469B0013445B00CA18594B1B682E
:102180001344594A136099E0504B00221A604C4B9B
:102190001B68184602F038FF4FF00002534B03F063
:1021A000C3F803460C46484AC2E90034464BD3E91B
:1021B00000341846214603F03DFA0246464B1A60A9
:1021C000414BD3E90045444B1B68184602F01CFF05
:1021D00002460B462046294602F0C8FD03460C463F
:1021E000184621464FF00002394B02F073FF0346B8
:1021F0000C46384AC2E90034364BD3E9003418465D
:10220000214603F017FA0246354B1A60314BD3E9E9
:102210000045334B1B68184602F0F6FE02460B469B
:102220002046294602F0A2FD03460C4618462146E8
:102230004FF00002264B02F04DFF03460C461846B5
:10224000214603F0F7F90246264B1A601F4B1B6824
:10225000DBB23033DBB2184601F09CFC1E4B1B682E
:10226000DBB23033DBB2184601F094FC1C4B1B6828
:10227000DBB23033DBB2184601F08CFC194B1B6823
:10228000DBB23033DBB2184601F084FC0F4B1B6825
:102290004FF47A7202FB03F20F4B1B68642101FBBF
:1022A00003F3D1180E4B1A6813469B0013445B00CE
:1022B000CA180C4B1B6813440B4A136000BFB0BD17
:1022C0002005002000408F4070040020880400207A
:1022D00000002440780400208C04002080040020AA
:1022E00090040020940400209C0400200000594029
:1022F00080B483B000AF0346FB71FB79303B092B00
:102300002AD801A252F823F031230008352300080F
:10231000392300083D230008412300084523000815
:10232000492300084D2300085123000855230008C5
:10233000002311E001230FE002230DE003230BE053
:10234000042309E0052307E0062305E0072303E053
:10235000082301E00923FFE718460C37BD4680BC7F
:10236000704700BF80B483B000AF03463960FB7193
:1023700097F90730002B0BDA0D49FB7903F00F03B7
:10238000043B3A68D2B21201D2B20B441A7609E089
:10239000084997F907303A68D2B21201D2B20B4419
:1023A00083F8002300BF0C37BD4680BC704700BFD8
:1023B00000ED00E000E100E080B582B000AF7860A1
:1023C0007B68B3F1807F01D3012311E00A4A7B6867
:1023D00023F07F43013B53600F214FF0FF30FFF7A5
:1023E000C1FF054B00229A60034B07221A600023AD
:1023F00018460837BD4680BD10E000E080B582B0C9
:1024000000AF374B1B680133354A1360354B1B68EF
:10241000002B04D0334B1B68013B324A1360AFF3EF
:1024200000800023FB7152E0FB792F4A9B0013448C
:102430005B68002B48D0FB792B4A9B0013445B68F8
:102440001B7B002B40D0FB79274A9B0013445B6821
:102450009B68002B38D0FB79234A9B0013445B68B0
:102460009A68013A9A60FB791F4A9B0013445B68A3
:102470009B68002B28D1FB791B4A9B0013445B68A7
:102480001A69FB7918499B000B445B685B69184625
:102490009047FB79144A9B0013445A68FB79124910
:1024A0009B000B445B681B689360FB790E4A9B00A2
:1024B00013445B685B68002B06D1FB790A4A9B00DA
:1024C00013445B6800221A73FB790133FB71064BDE
:1024D0001B78FA799A42A7D300BF0837BD4680BD62
:1024E000D8040020DC040020E404002080B500AF04
:1024F0000D4B1B680D4AA2FB03239B091846FFF7EF
:102500005BFF0346002B00D0FEE7074B1B689B09CF
:10251000074AA2FB03239B0A064A1360064B0122CB
:102520001A7000BF80BD00BF48040020D34D621068
:102530001791650284050020E004002080B588B072
:1025400000AFF8600B467A60FB72FB68444A934226
:1025500021D1444A434B1B6C43F400131364FB7AB0
:10256000184600F04FFA404B1A687B689A4202D92D
:102570003D4A7B6813603C4B1B683B614FF48043D2
:10258000BB830023BB8200233B8300237B834BF66A
:10259000FF73FB824AE0FB68344A934221D1314AFF
:1025A000304B1B6C43F480031364FB7A184600F035
:1025B00067FA2D4B5A687B689A4202D92A4A7B688F
:1025C0005360294B5B683B614FF48043BB8300231E
:1025D000BB8200233B8300237B834BF6FF73FB828C
:1025E00024E0FB68224A934220D11E4A1D4B1B6CFB
:1025F00043F400031364FB7A184600F081FA1A4B87
:102600009A687B689A4202D9174A7B689360164B96
:102610009B683B614FF48043BB830023BB82002354
:102620003B8300237B834BF6FF73FB82FB681B8895
:102630009BB223F001039AB2FB681A8007F11003E2
:102640001946F86800F0B6FEFB681B889BB243F0A1
:1026500001039AB2FB681A8000BF2037BD4680BDD7
:1026600000540040003802403C0400200058004064
:10267000005C004090B585B000AFF8607B600B4611
:10268000FB721346BB72F97A01230022F86800F04E
:1026900075F8BB7A1946F86800F0F4F8F97A012366
:1026A0000122F86800F06AF813E03B8C002B08D197
:1026B0007C68631C7B60F86800F03AF9034623707D
:1026C00007E07C68631C7B60F86800F001F9034652
:1026D00023703B8C5A1E3A84002BE6D100BF14377E
:1026E000BD4690BD80B582B000AF78600846114607
:1026F0001A460346FB700B46BB7013467B70F97895
:1027000000230022786800F039F8BB781946786811
:1027100000F0B8F87B781946786800F0B3F878686C
:1027200000F03EF900BF0837BD4680BD80B584B0DB
:1027300000AF78600B46FB700023FB73F978012330
:102740000022786800F01AF80346002B01D101231B
:10275000FB73786800F024F9FB7B18461037BD4600
:1027600080BD00BF80B483B000AF78600B467B8033
:1027700000BF0C37BD4680BC704700BF80B582B03B
:1027800000AF7860084611461A460346FB700B46B8
:10279000BB7013467B707B681B889BB243F48073CD
:1027A0009AB27B681A80354B44F620621A600AE0C0
:1027B000324B1B68013B314A1360304B1B68002BC6
:1027C00001D1012356E07B689B8A9BB203F0010391
:1027D000002BEDD07B78002B07D07B681B889BB249
:1027E00043F480639AB27B681A80BB78002B1DD1BA
:1027F000FB789BB223F001039AB27B681A821F4BCD
:1028000044F620621A600AE01C4B1B68013B1B4A1D
:1028100013601A4B1B68002B01D101232AE07B684F
:102820009B8A9BB203F00203002BEDD0BB78012BF7
:102830001DD1FB7843F00103DBB29AB27B681A82A8
:102840000E4B44F620621A600AE00C4B1B68013BF9
:102850000A4A1360094B1B68002B01D1012309E0D0
:102860000749786800F068FE0346002BEDD07B68CE
:102870001B8B002318460837BD4680BDFC04002092
:102880000200030080B483B000AF78600B46FB7099
:102890000E4B44F620621A6004E00C4B1B68013BAF
:1028A0000A4A13607B689B8A9BB203F08003002B6B
:1028B00003D1064B1B68002BEFD1FB789AB27B68E3
:1028C0001A8200BF0C37BD4680BC7047FC04002054
:1028D00080B584B000AF78607B681B889BB243F4FE
:1028E00080639AB27B681A800F4B44F620621A60AC
:1028F0000AE00D4B1B68013B0B4A13600A4B1B6837
:10290000002B01D101230BE00849786800F014FE88
:102910000346002BEDD07B681B8A9BB2FB73FB7BCD
:1029200018461037BD4680BDFC040020400003005F
:1029300080B584B000AF78607B681B889BB223F4BD
:1029400080639AB27B681A807B681B889BB243F4D1
:1029500000739AB27B681A800F4B44F620621A60AB
:102960000AE00D4B1B68013B0B4A13600A4B1B68C6
:10297000002B01D101230BE00849786800F0DCFD51
:102980000346002BEDD07B681B8A9BB2FB73FB7B5D
:1029900018461037BD4680BDFC04002040000300EF
:1029A00080B483B000AF7860154B44F620621A60A3
:1029B0000AE0134B1B68013B114A1360104B1B6864
:1029C000002B01D1012316E07B689B8A9BB203F0A8
:1029D0008003002BEDD07B689B8A9BB203F004033D
:1029E000002BE6D07B681B889BB243F400739AB23D
:1029F0007B681A80002318460C37BD4680BC7047A0
:102A0000FC04002080B584B002AF0346FB71FB7963
:102A1000002B09D1042301930123009301230122F8
:102A2000C021154800F04EFEFB79012B0AD104238A
:102A3000019301230093012301224FF440710E48BA
:102A400000F040FEFB79022B0AD1042301930123FD
:102A50000093012301224FF41071074800F032FE69
:102A6000FB79032B03D104210448FFF77BFE00BF51
:102A70000837BD4680BD00BF00040240005400403E
:102A800080B584B002AF0346FB71FB79002B0AD1FD
:102A90000423019301230093012301224FF4406199
:102AA000134800F00FFEFB79012B09D10423019399
:102AB000012300930123012203210E4800F002FEAE
:102AC000FB79022B09D104230193012300930123F5
:102AD00001223021084800F0F5FDFB79032B03D1DA
:102AE00004210648FFF73EFE00BF0837BD4680BD03
:102AF0000004024000140240001C02400058004044
:102B000080B584B002AF0346FB71FB79002B15D171
:102B10000423019301230093012301224FF48071C8
:102B2000134800F0CFFD04230193012300930123F8
:102B300001224FF400710F4800F0C4FDFB79012B16
:102B40000AD10423019301230093012301224FF4AE
:102B5000C071094800F0B6FDFB79032B03D10421B5
:102B60000648FFF7FFFD00BF0837BD4680BD00BF28
:102B70000000024000080240001C0240005C0040CF
:102B800080B584B000AF01210120FEF785F90B4B21
:102B9000BB605423BB800023BB810023FB803B1D13
:102BA00019464FF0804000F08FFE01214FF0804029
:102BB00000F0F4FE00BF1037BD4680BDFFBC01052C
:102BC00080B582B000AF01210120FEF747F9022352
:102BD0003B6001233B710023BB7103237B71002306
:102BE000FB713B461946034800F0EEF800BF08377A
:102BF000BD4680BD0000024080B582B000AF01211B
:102C00000120FEF72BF902233B6000233B710023D8
:102C1000BB7103237B710023FB713B4619460348BC
:102C200000F0D2F800BF0837BD4680BD000002406A
:102C300080B500AFFFF7A4FF00BF80BD80B483B0B4
:102C400000AF78604FF0804300225A6200BF4FF01F
:102C500080435A6A7B689A42F9D900BF0C37BD4657
:102C600080BC704780B584B000AF3B4600221A603C
:102C70001A710023FB73FFF7A3FF02214F4800F0F6
:102C800059F944F25060FFF7D9FF02214B4800F098
:102C900043F92820FFF7D2FFFFF7AEFF0221474894
:102CA00000F020F90346002B02D04FF0FF3381E003
:102CB0005020FFF7C3FF0221404800F013F90346FC
:102CC000002B02D14FF0FF3374E05020FFF7B6FF26
:102CD0000123BB6050E000BF0221384800F002F938
:102CE0000346002BF8D02320FFF7A8FF022133482A
:102CF00000F0F8F80346002B1DD0FB7BFA7B07F1B0
:102D000010010A4412F8102C5200D2B207F110013F
:102D10000B4403F8102CFB7BFA7B07F110010A44EB
:102D200012F8102C42F00102D2B207F110010B444C
:102D300003F8102C0DE0FB7BFA7B07F110010A442D
:102D400012F8102C5200D2B207F110010B4403F814
:102D5000102CBB6803F00703002B02D1FB7B01336F
:102D6000FB7300BF0221154800F0BCF80346002B9E
:102D7000F8D1BB680133BB60BB68282BABDD3B7867
:102D80001A467B781344BA781344FA7813443A7994
:102D9000934202D04FF0FF330CE03B781A46084BC9
:102DA0001A6048F6B800FFF749FFBB781A46054B92
:102DB0001A60002318461037BD4680BD000002404F
:102DC0008C0500208805002080B487B000AF7860B3
:102DD000396000237B6100233B610023FB600023FB
:102DE0007B6176E001227B6902FA03F33B613B6879
:102DF0001A683B691340FB60FA683B699A4265D1E7
:102E00007B681A687B695B00032101FA03F3DB43EB
:102E10001A407B681A607B681A683B681B79194600
:102E20007B695B0001FA03F31A437B681A603B6815
:102E30001B79012B03D03B681B79022B2ED17B68B9
:102E40009A687B695B00032101FA03F3DB431A40B4
:102E50007B689A607B689A683B685B7919467B69F6
:102E60005B0001FA03F31A437B689A607B685A6837
:102E70007B699BB2194601238B40DB431A407B6878
:102E80005A607B685B683A68927911467A6992B2B7
:102E900001FA02F292B21A437B685A607B68DA68E0
:102EA0007B699BB25B00032101FA03F3DB431A4009
:102EB0007B68DA607B68DA683B68DB7919467B6996
:102EC0005B0001FA03F31A437B68DA607B69013324
:102ED0007B617B690F2B85D900BF1C37BD4680BC49
:102EE000704700BF80B485B000AF78600B467B8030
:102EF0000023FB737B681A697B881340002B02D088
:102F00000123FB7301E00023FB73FB7B184614379E
:102F1000BD4680BC704700BF80B483B000AF78600E
:102F20000B467B807B687A881A8300BF0C37BD46CE
:102F300080BC704780B483B000AF78600B467B8064
:102F40007B687A885A8300BF0C37BD4680BC7047C7
:102F500080B485B000AF78600B467B8013467B70F1
:102F60000023FB600023BB607A787B8803F00703B3
:102F70009B0002FA03F3FB607B88DB089BB21846D8
:102F80007B88DB089BB21A467B68083253F8222004
:102F90007B8803F007039B000F2101FA03F3DB4357
:102FA00002EA03017B6800F1080243F822107B88E3
:102FB000DB089BB21A467B68083253F82220FB6874
:102FC0001343BB607B88DB089BB21A467B680832E0
:102FD000B96843F8221000BF1437BD4680BC704763
:102FE00080B500AF124A124B1B6843F00103136017
:102FF0000F4B00229A600E4A0D4B1B6823F084731E
:1030000023F4803313600A4B0A4A5A60084A084B7B
:103010001B6823F480231360054B0022DA6000F064
:103020000DF8054B4FF000629A6000BF80BD00BFF5
:10303000003802401030002400ED00E080B483B07E
:1030400000AF00237B6000233B60354A344B1B6894
:1030500043F480331360324B1B6803F400333B604E
:103060007B6801337B603B68002B03D17B68B3F541
:10307000A06FF0D12A4B1B6803F40033002B02D061
:1030800001233B6001E000233B603B68012B42D100
:10309000234A234B1B6C43F080531364214A214B7A
:1030A0001B6843F4804313601D4A1D4B9B6893606B
:1030B0001B4A1B4B9B6843F400439360184A184B10
:1030C0009B6843F4A0539360154B174A5A60144A07
:1030D000134B1B6843F08073136000BF104B1B68D9
:1030E00003F00073002BF9D0104B40F205621A6018
:1030F0000B4A0B4B9B6823F003039360084A084B71
:103100009B6843F00203936000BF054B9B6803F08C
:103110000C03082BF9D100BF0C37BD4680BC7047AB
:10312000003802400070004008544007003C024054
:1031300080B584B000AF01210420FDF7ADFE4CF254
:103140004F33BB6042F2CF03BB800023BB8100231F
:10315000FB803B1D1946034800F0B6FB00BF10374B
:10316000BD4680BD0008004080B582B000AF4FF47E
:10317000C06000F011FA1E233B7101237B71002314
:10318000BB710123FB713B1D184600F017FA0121AA
:10319000054800F071FC01220121034800F01EFCEB
:1031A00000BF0837BD4680BD0008004080B500AFB5
:1031B000FFF7BEFFFFF7D8FF0121024800F0EEFB4A
:1031C00000BF80BD0008004080B582B000AF012183
:1031D0000120FDF743FE0C233B6002233B710023DB
:1031E000BB710123FB7102237B713B4619460848E2
:1031F000FFF7EAFD072202210548FFF7A9FE072293
:1032000003210348FFF7A4FE00BF0837BD4680BD79
:103210000000024080B584B000AF01214FF40030BF
:10322000FDF73AFE4FF4E1333B600023BB800023FF
:10323000FB8000233B810023BB810C237B813B4629
:1032400019460348FDF784FA00BF1037BD4680BD1C
:103250000044004080B500AFFFF7B6FFFFF7DAFF8C
:1032600001210248FDF72EFB00BF80BD0044004055
:1032700080B582B000AF0346FB7100BF80210848D3
:10328000FDF79AFB0346002BF8D0FB799BB2194659
:103290000348FDF737FB00BF0837BD4680BD00BFC0
:1032A0000044004080B582B000AF786006E07B68E3
:1032B0005A1C7A601B781846FFF7DAFF7B681B7888
:1032C000002BF4D100BF0837BD4680BD80B582B069
:1032D00000AF094A3B461068516803C30221102021
:1032E000FDF70AF83B4619460020FDF7EBF800BF52
:1032F0000837BD4680BD00BF005D000880B58AB0BC
:1033000002AF224B1B68002B20D1204B1B680133DE
:103310001E4A1360FDF758F81D4B1A681D4B1968BB
:103320001D4B1B6807F1100000930B461B49FEF76D
:103330006FF81B4A00210020FDF752F807F1100337
:103340001A4601210020FDF74BF81BE00F4B00222D
:103350001A60FDF739F8134B1A68134B1968134BB1
:103360001B68384600930B460C49FEF751F8104A8B
:1033700000210020FDF734F83B461A4601210020C9
:10338000FDF72EF800BF2037BD4680BD00050020A8
:1033900088050020200500208C050020085D00081D
:1033A000185D0008B0040020C4040020D0040020F0
:1033B000205D000880B58AB000AF786039600023D6
:1033C000FB8400237B840423BB84574BFB617B6815
:1033D0009B88FB84FB8C23F03F03FB8407F10C03E9
:1033E0001846FDF791FC7B69FB61FB694F4AA2FB24
:1033F00003239B0C7B84FA8C7B8C1343FB847B68BC
:10340000FA8C9A807B681B889BB223F001039AB2E6
:103410007B681A800023FB843B681B68444A934204
:1034200015D83B681B685B00FA69B2FBF3F3BB84F9
:10343000BB8C032B01D80423BB84FA8CBB8C1343B5
:10344000FB847B8C01339AB27B681A8440E03B6832
:10345000DB884BF6FF72934209D13B681A6813462A
:103460005B001344FA69B2FBF3F3BB840EE03B68E4
:103470001A6813469B0013449A001344FA69B2FB7E
:10348000F3F3BB84BB8C43F48043BB84BB8CC3F39A
:103490000B03002B03D1BB8C43F00103BB84BA8C1C
:1034A000FB8C13439BB26FEA43436FEA5343FB84A5
:1034B0007B8C4FF4967202FB03F31E4A82FB0312CD
:1034C0009211DB17D31A9BB201339AB27B681A842C
:1034D0007B68FA8C9A837B681B889BB243F001035C
:1034E0009AB27B681A807B681B88FB84FB8C23F470
:1034F000816323F00203FB843B689A883B685B8905
:1035000013439AB2FB8C1343FB847B68FA8C1A80BA
:103510003B689A893B681B8913439AB27B681A817E
:1035200000BF2837BD4680BD00127A0083DE1B43F2
:10353000A0860100D34D621080B487B000AF7860E0
:10354000396000233B610023FB600023BB60002344
:10355000FB757B689B8A9BB2FB607B681B8B9BB275
:10356000BB60BB681B04BB60FA68BB68134323F0F5
:103570007F433B613A693B681A403B689A4202D1FB
:103580000123FB7501E00023FB75FB7D18461C370A
:10359000BD4680BC704700BF80B483B000AF786088
:1035A000054A7B6843F0BF6343F40033D36000BF38
:1035B0000C37BD4680BC704700ED00E080B485B09C
:1035C00000AF78600023FB730023BB730F237B7372
:1035D0007B68DB78002B38D0264BDB68DB4303F4B9
:1035E000E0631B0AFB73FB7BC3F10403BB737A7BB1
:1035F000FB7B42FA03F37B737B685B781A46BB7BE9
:1036000002FA03F3FB737B689A787B7B1340DAB290
:10361000FB7B1343FB73FB7B1B01FB73164A7B682D
:103620001B781344FA7B83F80023134A7B681B78CA
:103630005B09DBB218467B681B7803F01F0301218E
:1036400001FA03F342F820300FE00B497B681B7846
:103650005B09DBB218467B681B7803F01F0301226D
:103660009A4000F1200341F8232000BF1437BD46E3
:1036700080BC704700ED00E000E100E080B584B060
:1036800002AF7860084611461A4603467B800B4617
:103690007B7013463B707B88002B0ED0786800F05F
:1036A00075F838787A7879883B7D01933B7C009374
:1036B0000346786800F082F800E000BF0837BD4696
:1036C00080BD00BF80B586B002AF78600846114665
:1036D0001A4603467B800B467B7013463B707B8803
:1036E000002B3ED0786800F051F80023FB6029E001
:1036F0007A88FB6842FA03F303F00103002B1DD024
:10370000FB68DA08FB68D9087B68083153F8213078
:10371000F96801F0070189000F2000FA01F1C9439F
:103720000B40387FF96801F00701890000FA01F1C8
:1037300019437B68083243F8221000E000BFFB68A1
:103740000133FB60FB680F2BD2D97A7879883B7EF6
:1037500001933B78009313460222786800F02EF81C
:1037600000E000BF1037BD4680BD00BF80B483B00D
:1037700000AF78607B6803F13F4303F57E039B0A4B
:103780009BB218460C37BD4680BC704780B582B0EE
:1037900000AF78607868FFF7E9FF03461A46012317
:1037A00003FA02F1044A044B1B6B0B43136300BF83
:1037B0000837BD4680BD00BF0038024080B584B0E8
:1037C00000AF7860084611461A4603467B800B46D8
:1037D0007B7013463B707868FFF7C8FF0346BB73E6
:1037E0000023FB7367E07A88FB7B42FA03F303F064
:1037F0000103002B5BD0BB7BBA7B324931F812202E
:1038000011B2FA7B012000FA02F212B20A4312B29C
:1038100091B22C4A22F813107B68DB68FA7B5200C5
:10382000032101FA02F2D2431340397EFA7B52009F
:1038300001FA02F21A437B68DA607B681A68FB7B44
:103840005B00032101FA03F3DB4313407978FA7B31
:10385000520001FA02F21A437B681A607B78012B4E
:1038600002D07B78022B23D17B685B68FA7B012135
:1038700001FA02F292B2D24313403978FA7B01FA8C
:1038800002F292B21A437B685A607B689A68FB7BAB
:103890005B00032101FA03F3DB431340397FFA7B1A
:1038A000520001FA02F21A437B689A6000E000BFFE
:1038B000FB7B0133FB73FB7B0F2B94D900BF1037CD
:1038C000BD4680BD0405002080B485B000AF78609F
:1038D00039600023FB817B681B88FB817B68284A59
:1038E000934213D07B68274A93420FD07B68B3F191
:1038F000804F0BD07B68244A934207D07B68234AD1
:10390000934203D07B68224A934208D1FB8923F07B
:103910007003FB813B685A88FB891343FB817B68FA
:103920001C4A93420CD07B681B4A934208D0FB8907
:1039300023F44073FB813B681A89FB891343FB81A5
:103940007B68FA891A803B685A687B68DA623B6850
:103950001A887B681A857B68094A934203D07B6882
:10396000084A934204D13B689B7A9AB27B681A86D4
:103970007B6801229A8200BF1437BD4680BC704725
:103980000000014000040140000400400008004025
:10399000000C0040001000400014004080B483B0D0
:1039A00000AF78600B46FB70FB78002B08D07B687B
:1039B0001B889BB243F001039AB27B681A8007E030
:1039C0007B681B889BB223F001039AB27B681A8044
:1039D00000BF0C37BD4680BC704700BF80B483B0C9
:1039E00000AF78600B467B8013467B707B78002BA2
:1039F00008D07B689B899AB27B8813439AB27B6814
:103A00009A8109E07B689B899AB27B88DB439BB2F1
:103A100013409AB27B689A8100BF0C37BD4680BCC8
:103A2000704700BF80B485B000AF78600B467B80E4
:103A30000023FB730023BB8100237B817B681B8AEF
:103A40009AB27B881340BB817B689B899AB27B8842
:103A500013407B81BB89002B05D07B89002B02D0D2
:103A60000123FB7301E00023FB73FB7B1846143733
:103A7000BD4680BC704700BF80B483B000AF7860A3
:103A80000B467B807B88DB439AB27B681A8200BF3F
:103A90000C37BD4680BC704780B483B000AF03468E
:103AA000FB71084997F907305B09FA7902F01F02A8
:103AB000012000FA02F241F8232000BF0C37BD4676
:103AC00080BC704700E100E080B582B000AF01210A
:103AD0000420FDF7C3F94FF440633B6002233B71C0
:103AE0000023BB710123FB7102237B713B46194606
:103AF0000848FFF769F907220A210648FFF728FA64
:103B000007220B210348FFF723FA00BF0837BD4601
:103B100080BD00BF0008024080B584B000AF012125
:103B20004FF48020FDF7B8F94FF4E1333B600023F8
:103B3000BB800023FB8000233B810023BB810C233F
:103B40007B813B4619460348FCF702FE00BF103755
:103B5000BD4680BD0048004080B582B000AF012264
:103B600040F225510A48FCF7DFFE27233B71002372
:103B70007B710023BB710123FB713B1D1846FFF7CE
:103B80001DFD2720FFF788FF00BF0837BD4680BD19
:103B90000048004080B582B000AF0346FB7100BF13
:103BA00080210C48FCF708FF0346002BF8D0FB7976
:103BB0009BB219460748FCF7A5FE00BF4021054807
:103BC000FCF7FAFE0346002BF8D000BF0837BD46CD
:103BD00080BD00BF0048004080B500AFFFF774FF14
:103BE000FFF79AFFFFF7B8FF01210248FCF76AFED2
:103BF00000BF80BD004800402DE9F04FDFF8E4929F
:103C00008DB006460F4614461D4600F06DF999F931
:103C10000080B8F1FF3FCDE9000146D022462B4697
:103C20002046294601F0F0FC834600283DD132466B
:103C30003B463046394601F0E7FC0022824600232D
:103C4000002840F084803046394601F0ABFC002863
:103C500030D0002200232046294601F0A3FC8346F1
:103C6000A8B10122984B029200210022CDF828A091
:103C7000CDE90467CDE90645CDE908120393B8F113
:103C8000000F53D0914900200DB0BDE8F08F2046C1
:103C9000294600F047FF40B1002200232046294674
:103CA00001F08AFC002840F0B780DDE900010DB08A
:103CB000BDE8F08FDDE9000100F034FF8046002808
:103CC0005DD04FF0000A4FF0000B52465B46DDE935
:103CD000000101F067FC0028E7D03046394600F0CB
:103CE00021FF0028E1D02046294600F01BFF0028D4
:103CF000DBD099F90030744A039204210022022B90
:103D0000CDE90467CDE90645CDE908AB02910A92F9
:103D100003D002A800F00CFF70B901F0A7FF222326
:103D2000036009E000230024CDE9083402A800F074
:103D3000FFFE002800F086800A9B1BB101F096FF71
:103D40000A9B0360DDE908010DB0BDE8F08F204655
:103D5000294601F027FC0028A7D05C495A4BCDF832
:103D600028B001220020B8F1020FCDE90467CDE9A7
:103D7000064502920393CDE90801D7D197E7304673
:103D8000394600F0CFFE00289BD02046294600F09F
:103D9000C9FE002895D0DDE900231046194601F040
:103DA00033FC002873D1032399F900800293464B1A
:103DB0000A900393CDE90467CDE90645002200236C
:103DC00030463946B8F1000F41D1414F4FF06046BF
:103DD000CDE9086701F0F0FB00289AD000223D4BA6
:103DE0002046294601F076F904460D4600F0A8FE6B
:103DF00002460B462046294601F0D4FB002843D159
:103E0000354B99F900804FF06042CDE90823B8F1B5
:103E1000020F7FF47EAF80E799F900302A4ACDF88F
:103E200028B00121CDE90467CDE90645029103924E
:103E3000002B3FF477AF29490020022BCDE9080180
:103E40007FF474AF01F012FF2123036074E7244F65
:103E50000026CDE9086701F0AFFB0028D7D000228B
:103E60001C4B2046294601F035F904460D4600F06A
:103E700067FE02460B462046294601F093FB18B91F
:103E8000164B0022CDE9082399F90080BFE799F984
:103E900000900D4BCDF828800122CDE90467CDE9D3
:103EA000064502920393B9F1000F3FF43BAF0022A5
:103EB00000231046194601F037FAB9F1020FCDE997
:103EC0000801BFD032E700BF2C5D00080000F03FC2
:103ED000FFFFEF470000E03FFFFFEFC70000F0FFEC
:103EE0000000F07F5C0400202DE9F04F23F0004833
:103EF00058EA020993B03CD0714C21F00046A6422A
:103F000083460D460CDD06F1404606F5801656EA5E
:103F10000B0038D16B498346584613B0BDE8F08F8B
:103F20009A4696462BD0A045EDDC654CA04578D04E
:103F3000002D0F468146CDE9002376DB0024BEF13B
:103F4000000F27D15E4B984500F08B805D4B984564
:103F500052D0BAF1804F00F0C2835B4B9A4519D121
:103F6000002D17DB4846394613B0BDE8F04F00F08E
:103F700015BDCB465349584613B0BDE8F08F002815
:103F8000C1D1B045D1DD514813B0BDE8F04F00F0CC
:103F9000D1BD00244846394600F0C0FDBBF1000FFA
:103FA0001CD0ED0F013D54EA050370D0484B9845F5
:103FB00040F3948003F10473984540F30584454B26
:103FC0009E4270DDBAF1000F70DD3BA3D3E9002300
:103FD0001046194601F07EF883469DE726B1394B1D
:103FE00025F040429A42DCD1BAF1000FC0F2B08312
:103FF000002D08DB83468FE7BAF1000FC0F256842C
:10400000CB46394688E706F1404606F5801656EA63
:10401000040300F07B84012CECD1834601F10041C4
:104020007AE7BEF1000F83D06DE72B4B98452CDC6F
:10403000A3F15473984581DD4FEA2853A3F2FF336F
:10404000142B40F34B84C3F134032EFA03F202FA2B
:1040500003F39E457FF472AF02F00102C2F1020445
:104060006DE706F1404303F5801353EA0B0300F0BC
:104070003383184B9E4240F36083BAF1000F15DB87
:10408000DDE900349B46214646E7022457E74A46CD
:1040900048463B46394600F069FE02460B4601F0B1
:1040A00043F9834638E7BAF1000F8EDB4FF0000B7F
:1040B000594631E7AFF300809C7500883CE4377EB9
:1040C0000000F07F0000F03F0000E03F305D00089E
:1040D0000000E041FFFFEF3FFFFF3F43B6F5801FC9
:1040E0004FF0000205DAD44B00F0F4FF6FF0340219
:1040F0000E463315D14FC6F31306A3F2FF33134414
:1041000046F07F5ABE421A460D934AF4401A40F3D5
:10411000C183CB4B9E4240F3FD83134601330D9385
:10412000C84B0022CDE9062300270026CDE9086709
:10413000CDE90E67AAF5801A00270246534651467C
:10414000CDE90A23DDE9062300F010FEDDE90623B0
:1041500080468946DDE90A0100F00AFE02460B4668
:104160000020B84901F0E0F80A460146CDE91012F6
:10417000134649460246404600F0ACFF4FEA6A0348
:1041800043F000538C46834603F50023CDE904BC7D
:10419000DA468B46D9190023CDE902AB0293DDE95B
:1041A00002AB002006460F4602460B4650465946D3
:1041B00000F090FF02460B464046494600F0D6FD0F
:1041C000DDE90623804689463046394600F0CEFDBB
:1041D00002460B46DDE90A0100F0C8FD52465B4687
:1041E00000F078FF02460B464046494600F0BEFD0F
:1041F000DDE9102300F06EFFDDE90467CDE906017B
:1042000032463B463046394600F064FF78A3D3E996
:10421000002306460F4600F05DFF77A3D3E9002395
:1042200000F0A6FD32463B4600F054FF74A3D3E9EC
:10423000002300F09DFD32463B4600F04BFF72A389
:10424000D3E9002300F094FD32463B4600F042FFE4
:104250006FA3D3E9002300F08BFD32463B4600F00C
:1042600039FF6DA3D3E9002300F082FD324680467A
:1042700089463B463046394600F02CFF02460B4645
:104280004046494600F026FF524606460F465B462A
:10429000DDE9040100F06CFDDDE9062300F01AFF02
:1042A00032463B4600F064FD5246804689465B46F6
:1042B0005046594600F00EFF0022634BCDE90A013B
:1042C00000F056FD42464B4600F052FD02980F4664
:1042D000064632463B465046594600F0FBFE002259
:1042E00082468B46584B3046394600F03FFDDDE9AB
:1042F0000A2300F03BFD02460B464046494600F0CB
:1043000035FDDDE9042300F0E5FE324680468946AE
:104310003B46DDE9060100F0DDFE02460B46404665
:10432000494600F025FD8046894602460B46504628
:104330005946CDE904AB00F01BFDDDE902AB38A323
:10434000D3E9002350460F4600F0C4FEDDE9042304
:10435000CDE902013946504600F008FD02460B4601
:104360004046494600F002FD2FA3D3E9002300F0A8
:10437000B1FE2FA3D3E90023804689465046394633
:1043800000F0A8FE02460B464046494600F0F0FC0D
:10439000DDE90E2300F0ECFC80460D98894600F024
:1043A00033FE424606460F464B46DDE9020100F069
:1043B000DFFCDDE9082300F0DBFC32463B4600F081
:1043C000D7FC32463B4650468B4600F0CFFCDDE939
:1043D000082300F0CBFCDDE9022300F0C7FC024615
:1043E0000B464046494600F0C1FC80462EE000BF27
:1043F000EF4E454A287ECA3F65DBC9934A86CD3FCA
:1044000001411DA96074D13F4D268F515555D53FAF
:10441000FFAB6FDBB66DDB3F033333333333E33F47
:10442000000000E009C7EE3FFD033ADC09C7EE3F9C
:10443000F5015B14E02F3EBE000040438E98030060
:1044400079B60B000000F03F000008408946013CAF
:1044500054EA0503DDE9000114BFD54CD54C002317
:10446000CDE9043403460C46CDE90234002302931F
:10447000DDE9024522462B4600F078FC52465B46B9
:1044800000F028FEDDE9002306460F464046494677
:1044900000F020FE02460B463046394600F068FC2C
:1044A000224606460F462B4650465946CDE9006740
:1044B00000F010FE0B4602468046894630463946DB
:1044C00000F056FCBC4B994206460D460C4640F3A4
:1044D0000E8101F13F4303F5E003034340F0EF8118
:1044E0009FA3D3E90023DDE9000100F041FC42462F
:1044F00082468B464B463046294600F037FC024642
:104500000B465046594601F075F8002840F0D78117
:104510002F463B154FF48012A3F2FE3342FA03F309
:104520002344C3F30A52A54EA2F2FF321641C3F34D
:10453000130B0020C2F1140523EA06014BF4801B83
:1045400002460B46002C4BFA05FB40464946B8BFD5
:10455000CBF1000B00F00AFC02460B468046894670
:10456000DDE9000100F004FC4FEA0B5A00247EA3B1
:10457000D3E9002320460D4600F0ACFD4246064636
:104580000F464B462046294600F0F0FB02460B46FC
:10459000DDE9000100F0EAFB75A3D3E9002300F098
:1045A00099FD75A3D3E90023804689462046294614
:1045B00000F090FD02460B464046494600F0D8FB0D
:1045C0008046894602460B463046394600F0D0FB0D
:1045D00032463B4604460D4600F0C8FB02460B46F9
:1045E0004046494600F0C2FB2246804689462B469B
:1045F0002046294600F06EFD61A3D3E9002306465C
:104600000F4600F067FD60A3D3E9002300F0AEFB86
:1046100032463B4600F05EFD5DA3D3E9002300F087
:10462000A7FB32463B4600F055FD5BA3D3E90023D0
:1046300000F09CFB32463B4600F04CFD58A3D3E90A
:10464000002300F095FB32463B4600F043FD024656
:104650000B462046294600F089FB06460F460246D7
:104660000B462046294600F035FD0022CDE9000129
:104670004FF080433046394600F078FB02460B4647
:10468000DDE9000100F050FE424606460F464B466B
:104690002046294600F01EFD42464B4600F068FBCE
:1046A00002460B463046394600F060FB22462B4658
:1046B00000F05CFB02460B4600203D4900F056FB33
:1046C0008A44BAF5801FC0F236815146DDE90423E1
:1046D00000F000FD83461FE4F34635491CE44A46DA
:1046E00048463B46394600F0F5FC834614E4344B1B
:1046F00021F000479F4240F30081324B0B440343BB
:104700000CD142464B4600F031FB02460B46DDE938
:10471000000100F05BFF00283FF4FBAE22A3D3E9C9
:104720000023DDE9040100F0D5FC1FA3D3E9002339
:1047300000F0D0FC8346FFF7EFBBBAF1000FBFF6E5
:10474000B5ACDDE900349B4604F10041FFF7E4BB62
:1047500002460B460020164900F0E6FD48E400BF83
:10476000FE822B654715973C00000000432EE63F74
:10477000EF39FAFE422EE63F396CA80C615C20BE90
:10478000D0A4BE726937663EF16BD2C541BDBB3E57
:104790002CDE25AF6A56113F93BDBE166CC1663F35
:1047A0003E5555555555C53F59F3F8C21F6EA501E5
:1047B0000000F03F0000F0BFFFFF8F40FFFF0F0041
:1047C000FFCB904000346F3F6F4B9E427FF76BAC46
:1047D0006E4B9E423FF7F6AB00226C4B00F0C6FAE0
:1047E0005BA3D3E9002306460F4600F073FC5AA3EF
:1047F000D3E90023804689463046394600F06AFCFA
:10480000002282468B46624B3046394600F062FCFD
:1048100002460B4652A1D1E9000100F0A7FA324648
:104820003B4600F057FC02460B460020594900F079
:104830009DFA3246CDE902013B463046394600F04A
:1048400049FC02460B46DDE9020100F043FC46A3A9
:10485000D3E9002300F03EFC02460B465046594681
:1048600000F084FA02460B4606460F46404649468B
:1048700000F07EFA42464B46002082468B4600F00E
:1048800075FA02460B463046394600F06FFA80460C
:104890008946DCE500220023CDE90823CDE90E237B
:1048A0003A4B00220027CDE9062346E44A463B4620
:1048B0000020364900F038FD8346FFF72DBB2CA3BE
:1048C000D3E90023DDE9040100F004FC28A3D3E9C7
:1048D000002300F0FFFB8346FFF71EBBBEF1000F75
:1048E0007FF457ABC3F1140348FA03F202FA03F35F
:1048F000984524D07446FFF729BB264B9F423FF7CB
:1049000008AEDDE902349A469B462FE602460B4686
:10491000FFF7C1BB18A3D3E90023CDE9082318A3EF
:10492000D3E90023CDE90E231B4B00224FF480274F
:10493000CDE9062301E45A4600F08EF9C6E602F0FE
:104940000102C2F10204FFF701BB00BFAFF3008018
:10495000000000604715F73F44DF5DF80BAE543EA2
:10496000555555555555D53FFE822B654715F73F93
:104970009C7500883CE4377E0000004003B8E23FAD
:1049800006D0CF43EBFD4C3EFEFFEF3F0000F03F73
:104990000000D03F0000E03F0000F83F2DE9F84361
:1049A0005D4EB6460E4076450C46054600F09580B5
:1049B00000290B46024673DD0F157ED0A7F2FF37A4
:1049C000C3F31303F80743F4801364D403EBD271E9
:1049D00000260B447F105200B64616204FF40011FB
:1049E0000EEB01049C424FEAD2754FEA420203DC0F
:1049F0001B1B04EB010E0E44013805EB43034FEA89
:104A00005101EDD1844620244FF0004109E020D02F
:104A100003EBD275013C4FEA51012B444FEA4202AD
:104A200020D09E4501EB0C05F1DA002D05EB010CC1
:104A300009DBF0469542CEEB030300D9013B521B44
:104A40000844C646E4E7BCF1000FF2DB0EF10108B2
:104A5000F0E7954217D8002D05EB010C47DB98468F
:104A60000023ECE7134310D14008731003F17F5388
:104A700003F50013F20703EB075948BF40F000406D
:104A80004946BDE8F8837346C2E7411C33D000F0C5
:104A900001031844E8E75B0003EBD273520095E78B
:104AA00021F000460643ECD069BB0F46D30A153F00
:104AB0005205002BFAD0DD0220D4002100E001468F
:104AC0005B00DC0201F10100F9D5C0F1200422FAFB
:104AD00004F423437F1A824070E702460B4600F03D
:104AE000F9FA2A46234600F043F9BDE8F883BCF101
:104AF000000FABDAB3E701362046B6E720244FF0CB
:104B0000FF310020E3E702460B4600F02FF9024692
:104B10000B4600F009FCB4E70000F07F21F00041F3
:104B2000704700BF41F0004101F58010C00F704791
:104B30000020704700200149704700BF0000F87F47
:104B4000F0B5C1F30A5EAEF2FF36132E83B0024613
:104B50000B460C464FEAD17507462EDC002E49DB8A
:104B60003B49314103EA010010432BD049080B4077
:104B700053EA02070CD04FF48023132E24EA0101DC
:104B800043FA06F444EA01040CBF4FF00047002743
:104B9000304B03EBC5052146D5E900453846224692
:104BA0002B4600F0E5F8CDE9000122462B46DDE971
:104BB000000100F0DBF803B0F0BD332E06DDB6F5E2
:104BC000806F42D01046194603B0F0BDAEF2134ECE
:104BD0004FF0FF3121FA0EF10842F3D049080842A4
:104BE000D6D04FF0804320EA010143FA0EFE4EEA90
:104BF0000107CDE721F000410143E3D0C3F31301E6
:104C0000144E41EA000CCCF1000106EBC506D6E9D2
:104C1000006741EA0C0C5C0C4FEA1C3C0CF4002CC5
:104C200064044CEA040132463B4600F0A1F8CDE9A9
:104C300000013B463246DDE9000100F097F821F023
:104C4000004444EAC5731946BEE700F091F8BBE79B
:104C5000FFFF0F00385D0008F8B5C1F30A5604469F
:104C60000D460B46174606BB21F00043034325D0F3
:104C70000022354B00F02EFA344A974204460D4686
:104C80000B462ADBC1F30A56363E3E4440F2FE7222
:104C9000964228DC002E12DD23F0FF4323F4E003CC
:104CA00043EA065520462946F8BD40F2FF72964277
:104CB000EBD102460B4600F05BF8F8BDF8BD16F1EB
:104CC000350F1DDA4CF250339F4222462B4625DC2D
:104CD00019A1D1E9000100F03DF817A3D3E90023A1
:104CE00000F0F8F9F8BD22462B4615A1D1E90001E4
:104CF00000F030F812A3D3E9002300F0EBF9F8BD7F
:104D000023F0FF4323F4E003363643EA06552046FA
:104D1000294600220E4B00F0DDF9F8BD08A1D1E9CB
:104D2000000100F017F806A3D3E9002300F0D2F940
:104D3000F8BD00BFAFF3008059F3F8C21F6EA501A4
:104D40009C7500883CE4377E00005043B03CFFFF78
:104D50000000903C03F0004321F0004242EA0301CE
:104D6000704700BF81F0004102E000BF83F00043C4
:104D700030B54FEA41044FEA430594EA050F08BFF6
:104D800090EA020F1FBF54EA000C55EA020C7FEABA
:104D9000645C7FEA655C00F0E2804FEA5454D4EB37
:104DA0005555B8BF6D420CDD2C4480EA020281EA01
:104DB000030382EA000083EA010180EA020281EA39
:104DC0000303362D88BF30BD11F0004F4FEA01318B
:104DD0004FF4801C4CEA113102D0404261EB41019A
:104DE00013F0004F4FEA03334CEA133302D0524220
:104DF00063EB430394EA050F00F0A780A4F10104DC
:104E0000D5F1200E0DDB02FA0EFC22FA05F2801815
:104E100041F1000103FA0EF2801843FA05F35941FB
:104E20000EE0A5F120050EF1200E012A03FA0EFC7A
:104E300028BF4CF0020C43FA05F3C01851EBE371A4
:104E400001F0004507D54FF0000EDCF1000C7EEBC1
:104E500000006EEB0101B1F5801F1BD3B1F5001FFF
:104E60000CD349085FEA30004FEA3C0C04F101041E
:104E70004FEA445212F5800F80F09A80BCF1004F47
:104E800008BF5FEA500C50F1000041EB045141EAC9
:104E9000050130BD5FEA4C0C404141EB010111F4CA
:104EA000801FA4F10104E9D191F0000F04BF014675
:104EB0000020B1FA81F308BF2033A3F10B03B3F153
:104EC00020020CDA0C3208DD02F1140CC2F10C02E3
:104ED00001FA0CF021FA02F10CE002F11402D8BF41
:104EE000C2F1200C01FA02F120FA0CFCDCBF41EA0D
:104EF0000C019040E41AA2BF01EB0451294330BDDC
:104F00006FEA04041F3C1CDA0C340EDC04F11404B8
:104F1000C4F1200220FA04F001FA02F340EA03008F
:104F200021FA04F345EA030130BDC4F10C04C4F1D5
:104F3000200220FA02F001FA04F340EA03002946B5
:104F400030BD21FA04F0294630BD94F0000F83F4FF
:104F5000801306BF81F480110134013D4EE77FEAE2
:104F6000645C18BF7FEA655C29D094EA050F08BF2E
:104F700090EA020F05D054EA000C04BF194610460F
:104F800030BD91EA030F1EBF0021002030BD5FEA53
:104F9000545C05D14000494128BF41F0004130BD7B
:104FA00014F580043CBF01F5801130BD01F00045CF
:104FB00045F0FE4141F470014FF0000030BD7FEA42
:104FC000645C1ABF194610467FEA655C1CBF0B463D
:104FD000024650EA013406BF52EA033591EA030F54
:104FE00041F4002130BD00BF90F0000F04BF00214C
:104FF000704730B54FF4806404F132044FF000057F
:105000004FF0000150E700BF90F0000F04BF0021F7
:10501000704730B54FF4806404F1320410F000455D
:1050200048BF40424FF000013EE700BF42004FEA58
:10503000E2014FEA31014FEA02701FBF12F07F43D5
:1050400093F07F4F81F06051704792F0000F14BFD2
:1050500093F07F4F704730B54FF4607401F0004516
:1050600021F0004120E700BF50EA010208BF70476D
:1050700030B54FF000050AE050EA010208BF704762
:1050800030B511F0004502D5404261EB41014FF4CB
:10509000806404F132045FEA915C3FF4DCAE4FF0CF
:1050A00003025FEADC0C18BF03325FEADC0C18BFB6
:1050B000033202EBDC02C2F1200300FA03FC20FA07
:1050C00002F001FA03FE40EA0E0021FA02F1144454
:1050D000C1E600BF70B54FF0FF0C4CF4E06C1CEA69
:1050E00011541DBF1CEA135594EA0C0F95EA0C0FDE
:1050F00000F0DEF82C4481EA030621EA4C5123EA51
:105100004C5350EA013518BF52EA033541F480117F
:1051100043F4801338D0A0FB02CE4FF00005E1FB32
:1051200002E506F00042E0FB03E54FF00006E1FB7C
:1051300003569CF0000F18BF4EF0010EA4F1FF04BF
:10514000B6F5007F64F5407404D25FEA4E0E6D41FF
:1051500046EB060642EAC62141EA55514FEAC52010
:1051600040EA5E504FEACE2EB4F1FD0C88BFBCF58C
:10517000E06F1ED8BEF1004F08BF5FEA500E50F13D
:10518000000041EB045170BD06F0004646EA010103
:1051900040EA020081EA0301B4EB5C04C2BFD4EB35
:1051A0000C0541EA045170BD41F480114FF0000E2E
:1051B000013C00F3AB8014F1360FDEBF002001F09C
:1051C000004170BDC4F10004203C35DA0C341BDC16
:1051D00004F11404C4F1200500FA05F320FA04F0E8
:1051E00001FA05F240EA020001F0004221F000411C
:1051F00010EBD37021FA04F642EB06015EEA430E8F
:1052000008BF20EAD37070BDC4F10C04C4F12005BE
:1052100000FA04F320FA05F001FA04F240EA020071
:1052200001F0004110EBD37041F100015EEA430E42
:1052300008BF20EAD37070BDC4F1200500FA05F262
:105240004EEA020E20FA04F301FA05F243EA0203E1
:1052500021FA04F001F0004121FA04F220EA0200F0
:1052600000EBD3705EEA430E08BF20EAD37070BD36
:1052700094F0000F0FD101F00046400041EB010116
:1052800011F4801F08BF013CF7D041EA060195F0F8
:10529000000F18BF704703F00046520043EB0303B2
:1052A00013F4801F08BF013DF7D043EA060370479F
:1052B00094EA0C0F0CEA135518BF95EA0C0F0CD0AA
:1052C00050EA410618BF52EA4306D1D181EA0301F0
:1052D00001F000414FF0000070BD50EA410606BFEA
:1052E0001046194652EA430619D094EA0C0F02D12F
:1052F00050EA013613D195EA0C0F05D152EA033674
:105300001CBF104619460AD181EA030101F0004191
:1053100041F0FE4141F470014FF0000070BD41F0DA
:10532000FE4141F4780170BD70B54FF0FF0C4CF4B4
:10533000E06C1CEA11541DBF1CEA135594EA0C0FD3
:1053400095EA0C0F00F0A7F8A4EB050481EA030E20
:1053500052EA03354FEA013100F088804FEA033307
:105360004FF0805545EA131343EA12634FEA0222D5
:1053700045EA111545EA10654FEA00260EF0004196
:105380009D4208BF964244F1FD0404F5407402D2E8
:105390005B084FEA3202B61A65EB03055B084FEA79
:1053A00032024FF480104FF4002CB6EB020E75EB76
:1053B000030E22BFB61A754640EA0C005B084FEA9E
:1053C0003202B6EB020E75EB030E22BFB61A75461B
:1053D00040EA5C005B084FEA3202B6EB020E75EB66
:1053E000030E22BFB61A754640EA9C005B084FEADE
:1053F0003202B6EB020E75EB030E22BFB61A7546EB
:1054000040EADC0055EA060E18D04FEA051545EAD9
:1054100016754FEA06164FEAC30343EA52734FEA82
:10542000C2025FEA1C1CC0D111F4801F0BD141EAFB
:1054300000014FF000004FF0004CB6E711F4801F60
:1054400004BF01430020B4F1FD0C88BFBCF5E06F40
:105450003FF6AFAEB5EB030C04BFB6EB020C5FEA50
:10546000500C50F1000041EB045170BD0EF0004EA5
:105470004EEA113114EB5C04C2BFD4EB0C0541EAD7
:10548000045170BD41F480114FF0000E013C90E6D4
:1054900045EA060E8DE60CEA135594EA0C0F08BF98
:1054A00095EA0C0F3FF43BAF94EA0C0F0AD150EA97
:1054B00001347FF434AF95EA0C0F7FF425AF10462A
:1054C00019462CE795EA0C0F06D152EA03353FF452
:1054D000FDAE1046194622E750EA410618BF52EACF
:1054E00043067FF4C5AE50EA41047FF40DAF52EAA3
:1054F00043057FF4EBAE12E74FF0FF3C06E000BF40
:105500004FF0010C02E000BF4FF0010C4DF804CD4C
:105510004FEA410C7FEA6C5C4FEA430C18BF7FEA0C
:105520006C5C1BD001B050EA410C0CBF52EA430C3A
:1055300091EA030F02BF90EA020F0020704710F1BA
:10554000000F91EA030F58BF994208BF90422CBF49
:10555000D8176FEAE37040F0010070474FEA410C42
:105560007FEA6C5C02D150EA013C07D14FEA430C60
:105570007FEA6C5CD6D152EA033CD3D05DF8040BD1
:10558000704700BF8446104662468C461946634603
:1055900000E000BF01B5FFF7B7FF002848BF10F1DA
:1055A000000F01BD4DF808EDFFF7F4FF0CBF01201F
:1055B00000205DF808FB00BF4DF808EDFFF7EAFF9B
:1055C00034BF012000205DF808FB00BF4DF808ED56
:1055D000FFF7E0FF94BF012000205DF808FB00BF4B
:1055E0004DF808EDFFF7CEFF94BF012000205DF8D5
:1055F00008FB00BF4DF808EDFFF7C4FF34BF0120E2
:1056000000205DF808FB00BF4FEA410C7FEA6C5CAC
:1056100002D150EA013C0AD14FEA430C7FEA6C5CAC
:1056200002D152EA033C02D14FF0000070474FF024
:10563000010070474FEA410212F5001215D211D550
:105640006FF47873B3EB625212D94FEAC12343F07F
:10565000004343EA505311F0004F23FA02F018BF01
:10566000404270474FF00000704750EA013005D1CA
:1056700011F0004008BF6FF0004070474FF000008D
:10568000704700BF4FEA4102B2F1E04324BFB3F5D7
:10569000001CDCF1FE5C0DD901F0004C4FEAC002A9
:1056A0004CEA5070B2F1004F40EB830008BF20F08D
:1056B0000100704711F0804F21D113F13872BCBF47
:1056C00001F00040704741F480114FEA5252C2F19C
:1056D0001802C2F1200C10FA0CF320FA02F018BFE5
:1056E00040F001004FEAC1234FEAD32303FA0CFC38
:1056F00040EA0C0023FA02F34FEA4303CCE77FEAC7
:10570000625307D150EA01331EBF4FF0FE4040F410
:105710004000704701F0004040F0FE4040F40000BF
:10572000704700BF80F0004002E000BF81F0004100
:1057300042001FBF5FEA410392EA030F7FEA226C37
:105740007FEA236C6AD04FEA1262D2EB1363C1BFC7
:10575000D218414048404140B8BF5B42192B88BF36
:10576000704710F0004F40F4000020F07F4018BF59
:10577000404211F0004F41F4000121F07F4118BF79
:10578000494292EA030F3FD0A2F1010241FA03FC21
:1057900010EB0C00C3F1200301FA03F100F0004309
:1057A00002D5494260EB4000B0F5000F13D3B0F1D1
:1057B000807F06D340084FEA310102F10102FE2A40
:1057C00051D2B1F1004F40EBC25008BF20F00100B0
:1057D00040EA03007047490040EB000010F4000F5E
:1057E000A2F10102EDD1B0FA80FCACF1080CB2EBF1
:1057F0000C0200FA0CF0AABF00EBC2505242184350
:10580000BCBFD0401843704792F0000F81F40001F4
:1058100006BF80F400000132013BB5E74FEA4103C7
:105820007FEA226C18BF7FEA236C21D092EA030F33
:1058300004D092F0000F08BF0846704790EA010FAD
:105840001CBF0020704712F07F4F04D1400028BFDA
:1058500040F00040704712F100723CBF00F50000BC
:10586000704700F0004343F0FE4040F400007047F2
:105870007FEA226216BF08467FEA2363014642029E
:1058800006BF5FEA412390EA010F40F480007047B1
:105890004FF0000304E000BF10F0004348BF404257
:1058A0005FEA000C08BF704743F0964301464FF093
:1058B00000001CE050EA010208BF70474FF00003EF
:1058C0000AE000BF50EA010208BF704711F0004330
:1058D00002D5404261EB41015FEA010C02BF844600
:1058E0000146002043F0B64308BFA3F18053A3F55F
:1058F0000003BCFA8CF2083AA3EBC25310DB01FAA6
:1059000002FC634400FA02FCC2F12002BCF1004F29
:1059100020FA02F243EB020008BF20F001007047BA
:1059200002F1200201FA02FCC2F1200250EA4C000E
:1059300021FA02F243EB020008BF20EADC70704754
:105940004FF0FF0C1CEAD0521EBF1CEAD15392EA62
:105950000C0F93EA0C0F6FD01A4480EA010C40023E
:1059600018BF5FEA41211ED04FF0006343EA501098
:1059700043EA5111A0FB01310CF00040B1F5000FDA
:105980003EBF490041EAD3715B0040EA010062F189
:105990007F02FD2A1DD8B3F1004F40EBC25008BF73
:1059A00020F00100704790F0000F0CF0004C08BF91
:1059B00049024CEA502040EA51207F3AC2BFD2F15E
:1059C000FF0340EAC250704740F400004FF000036C
:1059D000013A5DDC12F1190FDCBF00F000407047A6
:1059E000C2F10002410021FA02F1C2F1200200FAE4
:1059F00002FC5FEA310040F1000053EA4C0308BFAB
:105A000020EADC70704792F0000F00F0004C02BFFB
:105A1000400010F4000F013AF9D040EA0C0093F076
:105A2000000F01F0004C02BF490011F4000F013BD0
:105A3000F9D041EA0C018FE70CEAD15392EA0C0F3E
:105A400018BF93EA0C0F0AD030F0004C18BF31F0A9
:105A5000004CD8D180EA010000F00040704790F07F
:105A6000000F17BF90F0004F084691F0000F91F023
:105A7000004F14D092EA0C0F01D142020FD193EAE9
:105A80000C0F03D14B0218BF084608D180EA010071
:105A900000F0004040F0FE4040F40000704740F04D
:105AA000FE4040F4400070474FF0FF0C1CEAD0521B
:105AB0001EBF1CEAD15392EA0C0F93EA0C0F69D077
:105AC000A2EB030280EA010C49024FEA402037D0E2
:105AD0004FF0805343EA111143EA10130CF00040D9
